{
  "contractName": "HogeNFTv3",
  "abi": [
    {
      "inputs": [
        {
          "internalType": "string",
          "name": "name",
          "type": "string"
        },
        {
          "internalType": "string",
          "name": "symbol",
          "type": "string"
        },
        {
          "internalType": "string",
          "name": "baseURI",
          "type": "string"
        }
      ],
      "stateMutability": "nonpayable",
      "type": "constructor"
    },
    {
      "anonymous": false,
      "inputs": [
        {
          "indexed": true,
          "internalType": "address",
          "name": "owner",
          "type": "address"
        },
        {
          "indexed": true,
          "internalType": "address",
          "name": "approved",
          "type": "address"
        },
        {
          "indexed": true,
          "internalType": "uint256",
          "name": "tokenId",
          "type": "uint256"
        }
      ],
      "name": "Approval",
      "type": "event"
    },
    {
      "anonymous": false,
      "inputs": [
        {
          "indexed": true,
          "internalType": "address",
          "name": "owner",
          "type": "address"
        },
        {
          "indexed": true,
          "internalType": "address",
          "name": "operator",
          "type": "address"
        },
        {
          "indexed": false,
          "internalType": "bool",
          "name": "approved",
          "type": "bool"
        }
      ],
      "name": "ApprovalForAll",
      "type": "event"
    },
    {
      "anonymous": false,
      "inputs": [
        {
          "indexed": false,
          "internalType": "address",
          "name": "from",
          "type": "address"
        },
        {
          "indexed": false,
          "internalType": "address",
          "name": "to",
          "type": "address"
        },
        {
          "indexed": false,
          "internalType": "string",
          "name": "uri",
          "type": "string"
        }
      ],
      "name": "Mint",
      "type": "event"
    },
    {
      "anonymous": false,
      "inputs": [
        {
          "indexed": true,
          "internalType": "address",
          "name": "previousOwner",
          "type": "address"
        },
        {
          "indexed": true,
          "internalType": "address",
          "name": "newOwner",
          "type": "address"
        }
      ],
      "name": "OwnershipTransferred",
      "type": "event"
    },
    {
      "anonymous": false,
      "inputs": [
        {
          "indexed": false,
          "internalType": "address",
          "name": "",
          "type": "address"
        },
        {
          "indexed": false,
          "internalType": "uint256",
          "name": "",
          "type": "uint256"
        }
      ],
      "name": "Received",
      "type": "event"
    },
    {
      "anonymous": false,
      "inputs": [
        {
          "indexed": true,
          "internalType": "bytes32",
          "name": "role",
          "type": "bytes32"
        },
        {
          "indexed": true,
          "internalType": "bytes32",
          "name": "previousAdminRole",
          "type": "bytes32"
        },
        {
          "indexed": true,
          "internalType": "bytes32",
          "name": "newAdminRole",
          "type": "bytes32"
        }
      ],
      "name": "RoleAdminChanged",
      "type": "event"
    },
    {
      "anonymous": false,
      "inputs": [
        {
          "indexed": true,
          "internalType": "bytes32",
          "name": "role",
          "type": "bytes32"
        },
        {
          "indexed": true,
          "internalType": "address",
          "name": "account",
          "type": "address"
        },
        {
          "indexed": true,
          "internalType": "address",
          "name": "sender",
          "type": "address"
        }
      ],
      "name": "RoleGranted",
      "type": "event"
    },
    {
      "anonymous": false,
      "inputs": [
        {
          "indexed": true,
          "internalType": "bytes32",
          "name": "role",
          "type": "bytes32"
        },
        {
          "indexed": true,
          "internalType": "address",
          "name": "account",
          "type": "address"
        },
        {
          "indexed": true,
          "internalType": "address",
          "name": "sender",
          "type": "address"
        }
      ],
      "name": "RoleRevoked",
      "type": "event"
    },
    {
      "anonymous": false,
      "inputs": [
        {
          "indexed": true,
          "internalType": "address",
          "name": "from",
          "type": "address"
        },
        {
          "indexed": true,
          "internalType": "address",
          "name": "to",
          "type": "address"
        },
        {
          "indexed": true,
          "internalType": "uint256",
          "name": "tokenId",
          "type": "uint256"
        }
      ],
      "name": "Transfer",
      "type": "event"
    },
    {
      "inputs": [],
      "name": "DEFAULT_ADMIN_ROLE",
      "outputs": [
        {
          "internalType": "bytes32",
          "name": "",
          "type": "bytes32"
        }
      ],
      "stateMutability": "view",
      "type": "function",
      "constant": true
    },
    {
      "inputs": [],
      "name": "MINTER_ROLE",
      "outputs": [
        {
          "internalType": "bytes32",
          "name": "",
          "type": "bytes32"
        }
      ],
      "stateMutability": "view",
      "type": "function",
      "constant": true
    },
    {
      "inputs": [],
      "name": "PAUSER_ROLE",
      "outputs": [
        {
          "internalType": "bytes32",
          "name": "",
          "type": "bytes32"
        }
      ],
      "stateMutability": "view",
      "type": "function",
      "constant": true
    },
    {
      "inputs": [
        {
          "internalType": "address",
          "name": "to",
          "type": "address"
        },
        {
          "internalType": "uint256",
          "name": "tokenId",
          "type": "uint256"
        }
      ],
      "name": "approve",
      "outputs": [],
      "stateMutability": "nonpayable",
      "type": "function"
    },
    {
      "inputs": [
        {
          "internalType": "address",
          "name": "owner",
          "type": "address"
        }
      ],
      "name": "balanceOf",
      "outputs": [
        {
          "internalType": "uint256",
          "name": "",
          "type": "uint256"
        }
      ],
      "stateMutability": "view",
      "type": "function",
      "constant": true
    },
    {
      "inputs": [],
      "name": "baseURI",
      "outputs": [
        {
          "internalType": "string",
          "name": "",
          "type": "string"
        }
      ],
      "stateMutability": "view",
      "type": "function",
      "constant": true
    },
    {
      "inputs": [
        {
          "internalType": "uint256",
          "name": "tokenId",
          "type": "uint256"
        }
      ],
      "name": "getApproved",
      "outputs": [
        {
          "internalType": "address",
          "name": "",
          "type": "address"
        }
      ],
      "stateMutability": "view",
      "type": "function",
      "constant": true
    },
    {
      "inputs": [
        {
          "internalType": "bytes32",
          "name": "role",
          "type": "bytes32"
        }
      ],
      "name": "getRoleAdmin",
      "outputs": [
        {
          "internalType": "bytes32",
          "name": "",
          "type": "bytes32"
        }
      ],
      "stateMutability": "view",
      "type": "function",
      "constant": true
    },
    {
      "inputs": [
        {
          "internalType": "bytes32",
          "name": "role",
          "type": "bytes32"
        },
        {
          "internalType": "uint256",
          "name": "index",
          "type": "uint256"
        }
      ],
      "name": "getRoleMember",
      "outputs": [
        {
          "internalType": "address",
          "name": "",
          "type": "address"
        }
      ],
      "stateMutability": "view",
      "type": "function",
      "constant": true
    },
    {
      "inputs": [
        {
          "internalType": "bytes32",
          "name": "role",
          "type": "bytes32"
        }
      ],
      "name": "getRoleMemberCount",
      "outputs": [
        {
          "internalType": "uint256",
          "name": "",
          "type": "uint256"
        }
      ],
      "stateMutability": "view",
      "type": "function",
      "constant": true
    },
    {
      "inputs": [
        {
          "internalType": "bytes32",
          "name": "role",
          "type": "bytes32"
        },
        {
          "internalType": "address",
          "name": "account",
          "type": "address"
        }
      ],
      "name": "grantRole",
      "outputs": [],
      "stateMutability": "nonpayable",
      "type": "function"
    },
    {
      "inputs": [
        {
          "internalType": "bytes32",
          "name": "role",
          "type": "bytes32"
        },
        {
          "internalType": "address",
          "name": "account",
          "type": "address"
        }
      ],
      "name": "hasRole",
      "outputs": [
        {
          "internalType": "bool",
          "name": "",
          "type": "bool"
        }
      ],
      "stateMutability": "view",
      "type": "function",
      "constant": true
    },
    {
      "inputs": [
        {
          "internalType": "address",
          "name": "owner",
          "type": "address"
        },
        {
          "internalType": "address",
          "name": "operator",
          "type": "address"
        }
      ],
      "name": "isApprovedForAll",
      "outputs": [
        {
          "internalType": "bool",
          "name": "",
          "type": "bool"
        }
      ],
      "stateMutability": "view",
      "type": "function",
      "constant": true
    },
    {
      "inputs": [],
      "name": "name",
      "outputs": [
        {
          "internalType": "string",
          "name": "",
          "type": "string"
        }
      ],
      "stateMutability": "view",
      "type": "function",
      "constant": true
    },
    {
      "inputs": [
        {
          "internalType": "uint256",
          "name": "tokenId",
          "type": "uint256"
        }
      ],
      "name": "ownerOf",
      "outputs": [
        {
          "internalType": "address",
          "name": "",
          "type": "address"
        }
      ],
      "stateMutability": "view",
      "type": "function",
      "constant": true
    },
    {
      "inputs": [
        {
          "internalType": "bytes32",
          "name": "role",
          "type": "bytes32"
        },
        {
          "internalType": "address",
          "name": "account",
          "type": "address"
        }
      ],
      "name": "renounceRole",
      "outputs": [],
      "stateMutability": "nonpayable",
      "type": "function"
    },
    {
      "inputs": [
        {
          "internalType": "bytes32",
          "name": "role",
          "type": "bytes32"
        },
        {
          "internalType": "address",
          "name": "account",
          "type": "address"
        }
      ],
      "name": "revokeRole",
      "outputs": [],
      "stateMutability": "nonpayable",
      "type": "function"
    },
    {
      "inputs": [
        {
          "internalType": "address",
          "name": "from",
          "type": "address"
        },
        {
          "internalType": "address",
          "name": "to",
          "type": "address"
        },
        {
          "internalType": "uint256",
          "name": "tokenId",
          "type": "uint256"
        }
      ],
      "name": "safeTransferFrom",
      "outputs": [],
      "stateMutability": "nonpayable",
      "type": "function"
    },
    {
      "inputs": [
        {
          "internalType": "address",
          "name": "from",
          "type": "address"
        },
        {
          "internalType": "address",
          "name": "to",
          "type": "address"
        },
        {
          "internalType": "uint256",
          "name": "tokenId",
          "type": "uint256"
        },
        {
          "internalType": "bytes",
          "name": "_data",
          "type": "bytes"
        }
      ],
      "name": "safeTransferFrom",
      "outputs": [],
      "stateMutability": "nonpayable",
      "type": "function"
    },
    {
      "inputs": [
        {
          "internalType": "address",
          "name": "operator",
          "type": "address"
        },
        {
          "internalType": "bool",
          "name": "approved",
          "type": "bool"
        }
      ],
      "name": "setApprovalForAll",
      "outputs": [],
      "stateMutability": "nonpayable",
      "type": "function"
    },
    {
      "inputs": [
        {
          "internalType": "bytes4",
          "name": "interfaceId",
          "type": "bytes4"
        }
      ],
      "name": "supportsInterface",
      "outputs": [
        {
          "internalType": "bool",
          "name": "",
          "type": "bool"
        }
      ],
      "stateMutability": "view",
      "type": "function",
      "constant": true
    },
    {
      "inputs": [],
      "name": "symbol",
      "outputs": [
        {
          "internalType": "string",
          "name": "",
          "type": "string"
        }
      ],
      "stateMutability": "view",
      "type": "function",
      "constant": true
    },
    {
      "inputs": [
        {
          "internalType": "uint256",
          "name": "index",
          "type": "uint256"
        }
      ],
      "name": "tokenByIndex",
      "outputs": [
        {
          "internalType": "uint256",
          "name": "",
          "type": "uint256"
        }
      ],
      "stateMutability": "view",
      "type": "function",
      "constant": true
    },
    {
      "inputs": [
        {
          "internalType": "address",
          "name": "owner",
          "type": "address"
        },
        {
          "internalType": "uint256",
          "name": "index",
          "type": "uint256"
        }
      ],
      "name": "tokenOfOwnerByIndex",
      "outputs": [
        {
          "internalType": "uint256",
          "name": "",
          "type": "uint256"
        }
      ],
      "stateMutability": "view",
      "type": "function",
      "constant": true
    },
    {
      "inputs": [
        {
          "internalType": "uint256",
          "name": "tokenId",
          "type": "uint256"
        }
      ],
      "name": "tokenURI",
      "outputs": [
        {
          "internalType": "string",
          "name": "",
          "type": "string"
        }
      ],
      "stateMutability": "view",
      "type": "function",
      "constant": true
    },
    {
      "inputs": [],
      "name": "totalSupply",
      "outputs": [
        {
          "internalType": "uint256",
          "name": "",
          "type": "uint256"
        }
      ],
      "stateMutability": "view",
      "type": "function",
      "constant": true
    },
    {
      "inputs": [
        {
          "internalType": "address",
          "name": "from",
          "type": "address"
        },
        {
          "internalType": "address",
          "name": "to",
          "type": "address"
        },
        {
          "internalType": "uint256",
          "name": "tokenId",
          "type": "uint256"
        }
      ],
      "name": "transferFrom",
      "outputs": [],
      "stateMutability": "nonpayable",
      "type": "function"
    },
    {
      "stateMutability": "payable",
      "type": "receive",
      "payable": true
    },
    {
      "inputs": [
        {
          "internalType": "address",
          "name": "to",
          "type": "address"
        },
        {
          "internalType": "string",
          "name": "uri",
          "type": "string"
        }
      ],
      "name": "mint",
      "outputs": [
        {
          "internalType": "uint256",
          "name": "",
          "type": "uint256"
        }
      ],
      "stateMutability": "nonpayable",
      "type": "function"
    },
    {
      "inputs": [
        {
          "internalType": "uint256",
          "name": "tokenId",
          "type": "uint256"
        }
      ],
      "name": "burn",
      "outputs": [],
      "stateMutability": "nonpayable",
      "type": "function"
    },
    {
      "inputs": [],
      "name": "owner",
      "outputs": [
        {
          "internalType": "address",
          "name": "",
          "type": "address"
        }
      ],
      "stateMutability": "view",
      "type": "function",
      "constant": true
    },
    {
      "inputs": [],
      "name": "isOwner",
      "outputs": [
        {
          "internalType": "bool",
          "name": "",
          "type": "bool"
        }
      ],
      "stateMutability": "view",
      "type": "function",
      "constant": true
    },
    {
      "inputs": [],
      "name": "renounceOwnership",
      "outputs": [],
      "stateMutability": "nonpayable",
      "type": "function"
    },
    {
      "inputs": [
        {
          "internalType": "address",
          "name": "newOwner",
          "type": "address"
        }
      ],
      "name": "transferOwnership",
      "outputs": [],
      "stateMutability": "nonpayable",
      "type": "function"
    },
    {
      "inputs": [],
      "name": "contractURI",
      "outputs": [
        {
          "internalType": "string",
          "name": "",
          "type": "string"
        }
      ],
      "stateMutability": "view",
      "type": "function",
      "constant": true
    }
  ],
  "bytecode": "0x60806040523480156200001157600080fd5b50604051620047f1380380620047f1833981810160405260608110156200003757600080fd5b81019080805160405193929190846401000000008211156200005857600080fd5b838201915060208201858111156200006f57600080fd5b82518660018202830111640100000000821117156200008d57600080fd5b8083526020830192505050908051906020019080838360005b83811015620000c3578082015181840152602081019050620000a6565b50505050905090810190601f168015620000f15780820380516001836020036101000a031916815260200191505b50604052602001805160405193929190846401000000008211156200011557600080fd5b838201915060208201858111156200012c57600080fd5b82518660018202830111640100000000821117156200014a57600080fd5b8083526020830192505050908051906020019080838360005b838110156200018057808201518184015260208101905062000163565b50505050905090810190601f168015620001ae5780820380516001836020036101000a031916815260200191505b5060405260200180516040519392919084640100000000821115620001d257600080fd5b83820191506020820185811115620001e957600080fd5b82518660018202830111640100000000821117156200020757600080fd5b8083526020830192505050908051906020019080838360005b838110156200023d57808201518184015260208101905062000220565b50505050905090810190601f1680156200026b5780820380516001836020036101000a031916815260200191505b5060405250505082826200028c6301ffc9a760e01b6200048660201b60201c565b8160079080519060200190620002a492919062000741565b508060089080519060200190620002bd92919062000741565b50620002d66380ac58cd60e01b6200048660201b60201c565b620002ee635b5e139f60e01b6200048660201b60201c565b6200030663780e9d6360e01b6200048660201b60201c565b50506200032c6000801b620003206200058f60201b60201c565b6200059760201b60201c565b6200036d7f9f2df0fed2c77648de5860a4cc508cd0818c85b8b8a1ab4ceeef8d981c8956a6620003616200058f60201b60201c565b6200059760201b60201c565b620003ae7f65d7a28e3265b37a6474929f336521b332c1681b933f6cb9f3376673440d862a620003a26200058f60201b60201c565b6200059760201b60201c565b33600c60006101000a81548173ffffffffffffffffffffffffffffffffffffffff021916908373ffffffffffffffffffffffffffffffffffffffff160217905550600c60009054906101000a900473ffffffffffffffffffffffffffffffffffffffff1673ffffffffffffffffffffffffffffffffffffffff16600073ffffffffffffffffffffffffffffffffffffffff167f8be0079c531659141344cd1fd0a4f28419497f9722a3daafe3b4186f6b6457e060405160405180910390a36200047d81620005ad60201b60201c565b505050620007f7565b63ffffffff60e01b817bffffffffffffffffffffffffffffffffffffffffffffffffffffffff1916141562000523576040517f08c379a000000000000000000000000000000000000000000000000000000000815260040180806020018281038252601c8152602001807f4552433136353a20696e76616c696420696e746572666163652069640000000081525060200191505060405180910390fd5b6001806000837bffffffffffffffffffffffffffffffffffffffffffffffffffffffff19167bffffffffffffffffffffffffffffffffffffffffffffffffffffffff1916815260200190815260200160002060006101000a81548160ff02191690831515021790555050565b600033905090565b620005a98282620005c960201b60201c565b5050565b80600a9080519060200190620005c592919062000741565b5050565b620005f7816000808581526020019081526020016000206000016200066c60201b6200228d1790919060201c565b1562000668576200060d6200058f60201b60201c565b73ffffffffffffffffffffffffffffffffffffffff168173ffffffffffffffffffffffffffffffffffffffff16837f2f8788117e7eff1d82e926ec794901d17c78024a50270940304540a733656f0d60405160405180910390a45b5050565b60006200069c836000018373ffffffffffffffffffffffffffffffffffffffff1660001b620006a460201b60201c565b905092915050565b6000620006b883836200071e60201b60201c565b6200071357826000018290806001815401808255809150506001900390600052602060002001600090919091909150558260000180549050836001016000848152602001908152602001600020819055506001905062000718565b600090505b92915050565b600080836001016000848152602001908152602001600020541415905092915050565b828054600181600116156101000203166002900490600052602060002090601f016020900481019282620007795760008555620007c5565b82601f106200079457805160ff1916838001178555620007c5565b82800160010185558215620007c5579182015b82811115620007c4578251825591602001919060010190620007a7565b5b509050620007d49190620007d8565b5090565b5b80821115620007f3576000816000905550600101620007d9565b5090565b613fea80620008076000396000f3fe6080604052600436106101fd5760003560e01c80638da5cb5b1161010d578063c87b56dd116100a0578063d547741f1161006f578063d547741f14610e50578063e63ab1e914610eab578063e8a3d48514610ed6578063e985e9c514610f66578063f2fde38b14610fed57610259565b8063c87b56dd14610c26578063ca15c87314610cda578063d0def52114610d29578063d539139314610e2557610259565b806395d89b41116100dc57806395d89b41146109fc578063a217fddf14610a8c578063a22cb46514610ab7578063b88d4fde14610b1457610259565b80638da5cb5b146108ae5780638f32d59b146108ef5780639010d07c1461091c57806391d148541461098b57610259565b80632f745c59116101905780634f6ccce71161015f5780634f6ccce7146106ee5780636352211e1461073d5780636c0360eb146107a257806370a0823114610832578063715018a61461089757610259565b80632f745c591461056e57806336568abe146105dd57806342842e0e1461063857806342966c68146106b357610259565b806318160ddd116101cc57806318160ddd1461041e57806323b872dd14610449578063248a9ca3146104c45780632f2ff15d1461051357610259565b806301ffc9a71461025e57806306fdde03146102ce578063081812fc1461035e578063095ea7b3146103c357610259565b36610259577f88a5966d370b9919b20f3e2c13ff65706f196a4e32cc2c12bf57088f885258743334604051808373ffffffffffffffffffffffffffffffffffffffff1681526020018281526020019250505060405180910390a1005b600080fd5b34801561026a57600080fd5b506102b66004803603602081101561028157600080fd5b8101908080357bffffffffffffffffffffffffffffffffffffffffffffffffffffffff1916906020019092919050505061103e565b60405180821515815260200191505060405180910390f35b3480156102da57600080fd5b506102e36110a6565b6040518080602001828103825283818151815260200191508051906020019080838360005b83811015610323578082015181840152602081019050610308565b50505050905090810190601f1680156103505780820380516001836020036101000a031916815260200191505b509250505060405180910390f35b34801561036a57600080fd5b506103976004803603602081101561038157600080fd5b8101908080359060200190929190505050611148565b604051808273ffffffffffffffffffffffffffffffffffffffff16815260200191505060405180910390f35b3480156103cf57600080fd5b5061041c600480360360408110156103e657600080fd5b81019080803573ffffffffffffffffffffffffffffffffffffffff169060200190929190803590602001909291905050506111e3565b005b34801561042a57600080fd5b50610433611327565b6040518082815260200191505060405180910390f35b34801561045557600080fd5b506104c26004803603606081101561046c57600080fd5b81019080803573ffffffffffffffffffffffffffffffffffffffff169060200190929190803573ffffffffffffffffffffffffffffffffffffffff16906020019092919080359060200190929190505050611338565b005b3480156104d057600080fd5b506104fd600480360360208110156104e757600080fd5b81019080803590602001909291905050506113ae565b6040518082815260200191505060405180910390f35b34801561051f57600080fd5b5061056c6004803603604081101561053657600080fd5b8101908080359060200190929190803573ffffffffffffffffffffffffffffffffffffffff1690602001909291905050506113cd565b005b34801561057a57600080fd5b506105c76004803603604081101561059157600080fd5b81019080803573ffffffffffffffffffffffffffffffffffffffff16906020019092919080359060200190929190505050611456565b6040518082815260200191505060405180910390f35b3480156105e957600080fd5b506106366004803603604081101561060057600080fd5b8101908080359060200190929190803573ffffffffffffffffffffffffffffffffffffffff1690602001909291905050506114b1565b005b34801561064457600080fd5b506106b16004803603606081101561065b57600080fd5b81019080803573ffffffffffffffffffffffffffffffffffffffff169060200190929190803573ffffffffffffffffffffffffffffffffffffffff1690602001909291908035906020019092919050505061154a565b005b3480156106bf57600080fd5b506106ec600480360360208110156106d657600080fd5b810190808035906020019092919050505061156a565b005b3480156106fa57600080fd5b506107276004803603602081101561071157600080fd5b81019080803590602001909291905050506115dc565b6040518082815260200191505060405180910390f35b34801561074957600080fd5b506107766004803603602081101561076057600080fd5b81019080803590602001909291905050506115ff565b604051808273ffffffffffffffffffffffffffffffffffffffff16815260200191505060405180910390f35b3480156107ae57600080fd5b506107b7611636565b6040518080602001828103825283818151815260200191508051906020019080838360005b838110156107f75780820151818401526020810190506107dc565b50505050905090810190601f1680156108245780820380516001836020036101000a031916815260200191505b509250505060405180910390f35b34801561083e57600080fd5b506108816004803603602081101561085557600080fd5b81019080803573ffffffffffffffffffffffffffffffffffffffff1690602001909291905050506116d8565b6040518082815260200191505060405180910390f35b3480156108a357600080fd5b506108ac6117ad565b005b3480156108ba57600080fd5b506108c361187f565b604051808273ffffffffffffffffffffffffffffffffffffffff16815260200191505060405180910390f35b3480156108fb57600080fd5b506109046118a9565b60405180821515815260200191505060405180910390f35b34801561092857600080fd5b5061095f6004803603604081101561093f57600080fd5b810190808035906020019092919080359060200190929190505050611901565b604051808273ffffffffffffffffffffffffffffffffffffffff16815260200191505060405180910390f35b34801561099757600080fd5b506109e4600480360360408110156109ae57600080fd5b8101908080359060200190929190803573ffffffffffffffffffffffffffffffffffffffff169060200190929190505050611932565b60405180821515815260200191505060405180910390f35b348015610a0857600080fd5b50610a11611963565b6040518080602001828103825283818151815260200191508051906020019080838360005b83811015610a51578082015181840152602081019050610a36565b50505050905090810190601f168015610a7e5780820380516001836020036101000a031916815260200191505b509250505060405180910390f35b348015610a9857600080fd5b50610aa1611a05565b6040518082815260200191505060405180910390f35b348015610ac357600080fd5b50610b1260048036036040811015610ada57600080fd5b81019080803573ffffffffffffffffffffffffffffffffffffffff169060200190929190803515159060200190929190505050611a0c565b005b348015610b2057600080fd5b50610c2460048036036080811015610b3757600080fd5b81019080803573ffffffffffffffffffffffffffffffffffffffff169060200190929190803573ffffffffffffffffffffffffffffffffffffffff1690602001909291908035906020019092919080359060200190640100000000811115610b9e57600080fd5b820183602082011115610bb057600080fd5b80359060200191846001830284011164010000000083111715610bd257600080fd5b91908080601f016020809104026020016040519081016040528093929190818152602001838380828437600081840152601f19601f820116905080830192505050505050509192919290505050611bc2565b005b348015610c3257600080fd5b50610c5f60048036036020811015610c4957600080fd5b8101908080359060200190929190505050611c3a565b6040518080602001828103825283818151815260200191508051906020019080838360005b83811015610c9f578082015181840152602081019050610c84565b50505050905090810190601f168015610ccc5780820380516001836020036101000a031916815260200191505b509250505060405180910390f35b348015610ce657600080fd5b50610d1360048036036020811015610cfd57600080fd5b8101908080359060200190929190505050611f0b565b6040518082815260200191505060405180910390f35b348015610d3557600080fd5b50610e0f60048036036040811015610d4c57600080fd5b81019080803573ffffffffffffffffffffffffffffffffffffffff16906020019092919080359060200190640100000000811115610d8957600080fd5b820183602082011115610d9b57600080fd5b80359060200191846001830284011164010000000083111715610dbd57600080fd5b91908080601f016020809104026020016040519081016040528093929190818152602001838380828437600081840152601f19601f820116905080830192505050505050509192919290505050611f31565b6040518082815260200191505060405180910390f35b348015610e3157600080fd5b50610e3a6120eb565b6040518082815260200191505060405180910390f35b348015610e5c57600080fd5b50610ea960048036036040811015610e7357600080fd5b8101908080359060200190929190803573ffffffffffffffffffffffffffffffffffffffff16906020019092919050505061210f565b005b348015610eb757600080fd5b50610ec0612198565b6040518082815260200191505060405180910390f35b348015610ee257600080fd5b50610eeb6121bc565b6040518080602001828103825283818151815260200191508051906020019080838360005b83811015610f2b578082015181840152602081019050610f10565b50505050905090810190601f168015610f585780820380516001836020036101000a031916815260200191505b509250505060405180910390f35b348015610f7257600080fd5b50610fd560048036036040811015610f8957600080fd5b81019080803573ffffffffffffffffffffffffffffffffffffffff169060200190929190803573ffffffffffffffffffffffffffffffffffffffff1690602001909291905050506121dc565b60405180821515815260200191505060405180910390f35b348015610ff957600080fd5b5061103c6004803603602081101561101057600080fd5b81019080803573ffffffffffffffffffffffffffffffffffffffff169060200190929190505050612270565b005b600060016000837bffffffffffffffffffffffffffffffffffffffffffffffffffffffff19167bffffffffffffffffffffffffffffffffffffffffffffffffffffffff1916815260200190815260200160002060009054906101000a900460ff169050919050565b606060078054600181600116156101000203166002900480601f01602080910402602001604051908101604052809291908181526020018280546001816001161561010002031660029004801561113e5780601f106111135761010080835404028352916020019161113e565b820191906000526020600020905b81548152906001019060200180831161112157829003601f168201915b5050505050905090565b6000611153826122bd565b6111a8576040517f08c379a000000000000000000000000000000000000000000000000000000000815260040180806020018281038252602c815260200180613e84602c913960400191505060405180910390fd5b6005600083815260200190815260200160002060009054906101000a900473ffffffffffffffffffffffffffffffffffffffff169050919050565b60006111ee826115ff565b90508073ffffffffffffffffffffffffffffffffffffffff168373ffffffffffffffffffffffffffffffffffffffff161415611275576040517f08c379a0000000000000000000000000000000000000000000000000000000008152600401808060200182810382526021815260200180613f346021913960400191505060405180910390fd5b8073ffffffffffffffffffffffffffffffffffffffff166112946122da565b73ffffffffffffffffffffffffffffffffffffffff1614806112c357506112c2816112bd6122da565b6121dc565b5b611318576040517f08c379a0000000000000000000000000000000000000000000000000000000008152600401808060200182810382526038815260200180613dd76038913960400191505060405180910390fd5b61132283836122e2565b505050565b6000611333600361239b565b905090565b6113496113436122da565b826123b0565b61139e576040517f08c379a0000000000000000000000000000000000000000000000000000000008152600401808060200182810382526031815260200180613f556031913960400191505060405180910390fd5b6113a98383836124a4565b505050565b6000806000838152602001908152602001600020600201549050919050565b6113f3600080848152602001908152602001600020600201546113ee6122da565b611932565b611448576040517f08c379a000000000000000000000000000000000000000000000000000000000815260040180806020018281038252602f815260200180613c7b602f913960400191505060405180910390fd5b61145282826126e7565b5050565b60006114a982600260008673ffffffffffffffffffffffffffffffffffffffff1673ffffffffffffffffffffffffffffffffffffffff16815260200190815260200160002061277a90919063ffffffff16565b905092915050565b6114b96122da565b73ffffffffffffffffffffffffffffffffffffffff168173ffffffffffffffffffffffffffffffffffffffff161461153c576040517f08c379a000000000000000000000000000000000000000000000000000000000815260040180806020018281038252602f815260200180613f86602f913960400191505060405180910390fd5b6115468282612794565b5050565b61156583838360405180602001604052806000815250611bc2565b505050565b61157b6115756122da565b826123b0565b6115d0576040517f08c379a0000000000000000000000000000000000000000000000000000000008152600401808060200182810382526026815260200180613d266026913960400191505060405180910390fd5b6115d981612827565b50565b6000806115f383600361296190919063ffffffff16565b50905080915050919050565b600061162f82604051806060016040528060298152602001613e3960299139600361298d9092919063ffffffff16565b9050919050565b6060600a8054600181600116156101000203166002900480601f0160208091040260200160405190810160405280929190818152602001828054600181600116156101000203166002900480156116ce5780601f106116a3576101008083540402835291602001916116ce565b820191906000526020600020905b8154815290600101906020018083116116b157829003601f168201915b5050505050905090565b60008073ffffffffffffffffffffffffffffffffffffffff168273ffffffffffffffffffffffffffffffffffffffff16141561175f576040517f08c379a000000000000000000000000000000000000000000000000000000000815260040180806020018281038252602a815260200180613e0f602a913960400191505060405180910390fd5b6117a6600260008473ffffffffffffffffffffffffffffffffffffffff1673ffffffffffffffffffffffffffffffffffffffff1681526020019081526020016000206129ac565b9050919050565b6117b56118a9565b6117be57600080fd5b600073ffffffffffffffffffffffffffffffffffffffff16600c60009054906101000a900473ffffffffffffffffffffffffffffffffffffffff1673ffffffffffffffffffffffffffffffffffffffff167f8be0079c531659141344cd1fd0a4f28419497f9722a3daafe3b4186f6b6457e060405160405180910390a36000600c60006101000a81548173ffffffffffffffffffffffffffffffffffffffff021916908373ffffffffffffffffffffffffffffffffffffffff160217905550565b6000600c60009054906101000a900473ffffffffffffffffffffffffffffffffffffffff16905090565b6000600c60009054906101000a900473ffffffffffffffffffffffffffffffffffffffff1673ffffffffffffffffffffffffffffffffffffffff163373ffffffffffffffffffffffffffffffffffffffff1614905090565b600061192a826000808681526020019081526020016000206000016129c190919063ffffffff16565b905092915050565b600061195b826000808681526020019081526020016000206000016129db90919063ffffffff16565b905092915050565b606060088054600181600116156101000203166002900480601f0160208091040260200160405190810160405280929190818152602001828054600181600116156101000203166002900480156119fb5780601f106119d0576101008083540402835291602001916119fb565b820191906000526020600020905b8154815290600101906020018083116119de57829003601f168201915b5050505050905090565b6000801b81565b611a146122da565b73ffffffffffffffffffffffffffffffffffffffff168273ffffffffffffffffffffffffffffffffffffffff161415611ab5576040517f08c379a00000000000000000000000000000000000000000000000000000000081526004018080602001828103825260198152602001807f4552433732313a20617070726f766520746f2063616c6c65720000000000000081525060200191505060405180910390fd5b8060066000611ac26122da565b73ffffffffffffffffffffffffffffffffffffffff1673ffffffffffffffffffffffffffffffffffffffff16815260200190815260200160002060008473ffffffffffffffffffffffffffffffffffffffff1673ffffffffffffffffffffffffffffffffffffffff16815260200190815260200160002060006101000a81548160ff0219169083151502179055508173ffffffffffffffffffffffffffffffffffffffff16611b6f6122da565b73ffffffffffffffffffffffffffffffffffffffff167f17307eab39ab6107e8899845ad3d59bd9653f200f220920489ca2b5937696c318360405180821515815260200191505060405180910390a35050565b611bd3611bcd6122da565b836123b0565b611c28576040517f08c379a0000000000000000000000000000000000000000000000000000000008152600401808060200182810382526031815260200180613f556031913960400191505060405180910390fd5b611c3484848484612a0b565b50505050565b6060611c45826122bd565b611c9a576040517f08c379a000000000000000000000000000000000000000000000000000000000815260040180806020018281038252602f815260200180613f05602f913960400191505060405180910390fd5b6000600960008481526020019081526020016000208054600181600116156101000203166002900480601f016020809104026020016040519081016040528092919081815260200182805460018160011615610100020316600290048015611d435780601f10611d1857610100808354040283529160200191611d43565b820191906000526020600020905b815481529060010190602001808311611d2657829003601f168201915b505050505090506000611d54611636565b9050600081511415611d6a578192505050611f06565b600082511115611e3b5780826040516020018083805190602001908083835b60208310611dac5780518252602082019150602081019050602083039250611d89565b6001836020036101000a03801982511681845116808217855250505050505090500182805190602001908083835b60208310611dfd5780518252602082019150602081019050602083039250611dda565b6001836020036101000a0380198251168184511680821785525050505050509050019250505060405160208183030381529060405292505050611f06565b80611e4585612a7d565b6040516020018083805190602001908083835b60208310611e7b5780518252602082019150602081019050602083039250611e58565b6001836020036101000a03801982511681845116808217855250505050505090500182805190602001908083835b60208310611ecc5780518252602082019150602081019050602083039250611ea9565b6001836020036101000a03801982511681845116808217855250505050505090500192505050604051602081830303815290604052925050505b919050565b6000611f2a600080848152602001908152602001600020600001612bc4565b9050919050565b60007f9b2e32f2691b16092ad4ec8aef92ebd5c81672220a833beabd824963cb770184611f5c6122da565b8484604051808473ffffffffffffffffffffffffffffffffffffffff1681526020018373ffffffffffffffffffffffffffffffffffffffff16815260200180602001828103825283818151815260200191508051906020019080838360005b83811015611fd6578082015181840152602081019050611fbb565b50505050905090810190601f1680156120035780820380516001836020036101000a031916815260200191505b5094505050505060405180910390a16120437f9f2df0fed2c77648de5860a4cc508cd0818c85b8b8a1ab4ceeef8d981c8956a661203e6122da565b611932565b6120b5576040517f08c379a000000000000000000000000000000000000000000000000000000000815260040180806020018281038252601d8152602001807f4d7573742068617665206d696e74657220726f6c6520746f206d696e7400000081525060200191505060405180910390fd5b6120c8836120c3600b612bd9565b612be7565b6120db6120d5600b612bd9565b83612c05565b6120e5600b612c8f565b92915050565b7f9f2df0fed2c77648de5860a4cc508cd0818c85b8b8a1ab4ceeef8d981c8956a681565b612135600080848152602001908152602001600020600201546121306122da565b611932565b61218a576040517f08c379a0000000000000000000000000000000000000000000000000000000008152600401808060200182810382526030815260200180613da76030913960400191505060405180910390fd5b6121948282612794565b5050565b7f65d7a28e3265b37a6474929f336521b332c1681b933f6cb9f3376673440d862a81565b60606040518060600160405280602f8152602001613d78602f9139905090565b6000600660008473ffffffffffffffffffffffffffffffffffffffff1673ffffffffffffffffffffffffffffffffffffffff16815260200190815260200160002060008373ffffffffffffffffffffffffffffffffffffffff1673ffffffffffffffffffffffffffffffffffffffff16815260200190815260200160002060009054906101000a900460ff16905092915050565b6122786118a9565b61228157600080fd5b61228a81612ca5565b50565b60006122b5836000018373ffffffffffffffffffffffffffffffffffffffff1660001b612d9f565b905092915050565b60006122d3826003612e0f90919063ffffffff16565b9050919050565b600033905090565b816005600083815260200190815260200160002060006101000a81548173ffffffffffffffffffffffffffffffffffffffff021916908373ffffffffffffffffffffffffffffffffffffffff160217905550808273ffffffffffffffffffffffffffffffffffffffff16612355836115ff565b73ffffffffffffffffffffffffffffffffffffffff167f8c5be1e5ebec7d5bd14f71427d1e84f3dd0314c0f7b2291e5b200ac8c7c3b92560405160405180910390a45050565b60006123a982600001612e29565b9050919050565b60006123bb826122bd565b612410576040517f08c379a000000000000000000000000000000000000000000000000000000000815260040180806020018281038252602c815260200180613d4c602c913960400191505060405180910390fd5b600061241b836115ff565b90508073ffffffffffffffffffffffffffffffffffffffff168473ffffffffffffffffffffffffffffffffffffffff16148061248a57508373ffffffffffffffffffffffffffffffffffffffff1661247284611148565b73ffffffffffffffffffffffffffffffffffffffff16145b8061249b575061249a81856121dc565b5b91505092915050565b8273ffffffffffffffffffffffffffffffffffffffff166124c4826115ff565b73ffffffffffffffffffffffffffffffffffffffff1614612530576040517f08c379a0000000000000000000000000000000000000000000000000000000008152600401808060200182810382526029815260200180613edc6029913960400191505060405180910390fd5b600073ffffffffffffffffffffffffffffffffffffffff168273ffffffffffffffffffffffffffffffffffffffff1614156125b6576040517f08c379a0000000000000000000000000000000000000000000000000000000008152600401808060200182810382526024815260200180613cdc6024913960400191505060405180910390fd5b6125c1838383612e3a565b6125cc6000826122e2565b61261d81600260008673ffffffffffffffffffffffffffffffffffffffff1673ffffffffffffffffffffffffffffffffffffffff168152602001908152602001600020612e4a90919063ffffffff16565b5061266f81600260008573ffffffffffffffffffffffffffffffffffffffff1673ffffffffffffffffffffffffffffffffffffffff168152602001908152602001600020612e6490919063ffffffff16565b5061268681836003612e7e9092919063ffffffff16565b50808273ffffffffffffffffffffffffffffffffffffffff168473ffffffffffffffffffffffffffffffffffffffff167fddf252ad1be2c89b69c2b068fc378daa952ba7f163c4a11628f55a4df523b3ef60405160405180910390a4505050565b61270e8160008085815260200190815260200160002060000161228d90919063ffffffff16565b156127765761271b6122da565b73ffffffffffffffffffffffffffffffffffffffff168173ffffffffffffffffffffffffffffffffffffffff16837f2f8788117e7eff1d82e926ec794901d17c78024a50270940304540a733656f0d60405160405180910390a45b5050565b60006127898360000183612eb3565b60001c905092915050565b6127bb81600080858152602001908152602001600020600001612f3690919063ffffffff16565b15612823576127c86122da565b73ffffffffffffffffffffffffffffffffffffffff168173ffffffffffffffffffffffffffffffffffffffff16837ff6391f5c32d9c69d2a47ea670b442974b53935d1edc7fd64eb21e047a839171b60405160405180910390a45b5050565b6000612832826115ff565b905061284081600084612e3a565b61284b6000836122e2565b6000600960008481526020019081526020016000208054600181600116156101000203166002900490501461289a576009600083815260200190815260200160002060006128999190613b65565b5b6128eb82600260008473ffffffffffffffffffffffffffffffffffffffff1673ffffffffffffffffffffffffffffffffffffffff168152602001908152602001600020612e4a90919063ffffffff16565b50612900826003612f6690919063ffffffff16565b5081600073ffffffffffffffffffffffffffffffffffffffff168273ffffffffffffffffffffffffffffffffffffffff167fddf252ad1be2c89b69c2b068fc378daa952ba7f163c4a11628f55a4df523b3ef60405160405180910390a45050565b6000806000806129748660000186612f80565b915091508160001c8160001c9350935050509250929050565b60006129a0846000018460001b84613019565b60001c90509392505050565b60006129ba8260000161310f565b9050919050565b60006129d08360000183612eb3565b60001c905092915050565b6000612a03836000018373ffffffffffffffffffffffffffffffffffffffff1660001b613120565b905092915050565b612a168484846124a4565b612a2284848484613143565b612a77576040517f08c379a0000000000000000000000000000000000000000000000000000000008152600401808060200182810382526032815260200180613caa6032913960400191505060405180910390fd5b50505050565b60606000821415612ac5576040518060400160405280600181526020017f30000000000000000000000000000000000000000000000000000000000000008152509050612bbf565b600082905060005b60008214612aef578080600101915050600a8281612ae757fe5b049150612acd565b60008167ffffffffffffffff81118015612b0857600080fd5b506040519080825280601f01601f191660200182016040528015612b3b5781602001600182028036833780820191505090505b50905060006001830390508593505b60008414612bb757600a8481612b5c57fe5b0660300160f81b82828060019003935081518110612b7657fe5b60200101907effffffffffffffffffffffffffffffffffffffffffffffffffffffffffffff1916908160001a905350600a8481612baf57fe5b049350612b4a565b819450505050505b919050565b6000612bd28260000161310f565b9050919050565b600081600001549050919050565b612c0182826040518060200160405280600081525061335c565b5050565b612c0e826122bd565b612c63576040517f08c379a000000000000000000000000000000000000000000000000000000000815260040180806020018281038252602c815260200180613eb0602c913960400191505060405180910390fd5b80600960008481526020019081526020016000209080519060200190612c8a929190613bad565b505050565b6001816000016000828254019250508190555050565b600073ffffffffffffffffffffffffffffffffffffffff168173ffffffffffffffffffffffffffffffffffffffff161415612cdf57600080fd5b8073ffffffffffffffffffffffffffffffffffffffff16600c60009054906101000a900473ffffffffffffffffffffffffffffffffffffffff1673ffffffffffffffffffffffffffffffffffffffff167f8be0079c531659141344cd1fd0a4f28419497f9722a3daafe3b4186f6b6457e060405160405180910390a380600c60006101000a81548173ffffffffffffffffffffffffffffffffffffffff021916908373ffffffffffffffffffffffffffffffffffffffff16021790555050565b6000612dab8383613120565b612e04578260000182908060018154018082558091505060019003906000526020600020016000909190919091505582600001805490508360010160008481526020019081526020016000208190555060019050612e09565b600090505b92915050565b6000612e21836000018360001b6133cd565b905092915050565b600081600001805490509050919050565b612e458383836133f0565b505050565b6000612e5c836000018360001b6133f5565b905092915050565b6000612e76836000018360001b612d9f565b905092915050565b6000612eaa846000018460001b8473ffffffffffffffffffffffffffffffffffffffff1660001b6134dd565b90509392505050565b600081836000018054905011612f14576040517f08c379a0000000000000000000000000000000000000000000000000000000008152600401808060200182810382526022815260200180613c596022913960400191505060405180910390fd5b826000018281548110612f2357fe5b9060005260206000200154905092915050565b6000612f5e836000018373ffffffffffffffffffffffffffffffffffffffff1660001b6133f5565b905092915050565b6000612f78836000018360001b6135b9565b905092915050565b60008082846000018054905011612fe2576040517f08c379a0000000000000000000000000000000000000000000000000000000008152600401808060200182810382526022815260200180613e626022913960400191505060405180910390fd5b6000846000018481548110612ff357fe5b906000526020600020906002020190508060000154816001015492509250509250929050565b600080846001016000858152602001908152602001600020549050600081141583906130e0576040517f08c379a00000000000000000000000000000000000000000000000000000000081526004018080602001828103825283818151815260200191508051906020019080838360005b838110156130a557808201518184015260208101905061308a565b50505050905090810190601f1680156130d25780820380516001836020036101000a031916815260200191505b509250505060405180910390fd5b508460000160018203815481106130f357fe5b9060005260206000209060020201600101549150509392505050565b600081600001805490509050919050565b600080836001016000848152602001908152602001600020541415905092915050565b60006131648473ffffffffffffffffffffffffffffffffffffffff166136d2565b6131715760019050613354565b60006132db63150b7a0260e01b6131866122da565b888787604051602401808573ffffffffffffffffffffffffffffffffffffffff1681526020018473ffffffffffffffffffffffffffffffffffffffff16815260200183815260200180602001828103825283818151815260200191508051906020019080838360005b8381101561320a5780820151818401526020810190506131ef565b50505050905090810190601f1680156132375780820380516001836020036101000a031916815260200191505b5095505050505050604051602081830303815290604052907bffffffffffffffffffffffffffffffffffffffffffffffffffffffff19166020820180517bffffffffffffffffffffffffffffffffffffffffffffffffffffffff8381831617835250505050604051806060016040528060328152602001613caa603291398773ffffffffffffffffffffffffffffffffffffffff166136e59092919063ffffffff16565b905060008180602001905160208110156132f457600080fd5b8101908080519060200190929190505050905063150b7a0260e01b7bffffffffffffffffffffffffffffffffffffffffffffffffffffffff1916817bffffffffffffffffffffffffffffffffffffffffffffffffffffffff191614925050505b949350505050565b61336683836136fd565b6133736000848484613143565b6133c8576040517f08c379a0000000000000000000000000000000000000000000000000000000008152600401808060200182810382526032815260200180613caa6032913960400191505060405180910390fd5b505050565b600080836001016000848152602001908152602001600020541415905092915050565b505050565b600080836001016000848152602001908152602001600020549050600081146134d1576000600182039050600060018660000180549050039050600086600001828154811061344057fe5b906000526020600020015490508087600001848154811061345d57fe5b906000526020600020018190555060018301876001016000838152602001908152602001600020819055508660000180548061349557fe5b600190038181906000526020600020016000905590558660010160008781526020019081526020016000206000905560019450505050506134d7565b60009150505b92915050565b6000808460010160008581526020019081526020016000205490506000811415613584578460000160405180604001604052808681526020018581525090806001815401808255809150506001900390600052602060002090600202016000909190919091506000820151816000015560208201518160010155505084600001805490508560010160008681526020019081526020016000208190555060019150506135b2565b8285600001600183038154811061359757fe5b90600052602060002090600202016001018190555060009150505b9392505050565b600080836001016000848152602001908152602001600020549050600081146136c6576000600182039050600060018660000180549050039050600086600001828154811061360457fe5b906000526020600020906002020190508087600001848154811061362457fe5b906000526020600020906002020160008201548160000155600182015481600101559050506001830187600101600083600001548152602001908152602001600020819055508660000180548061367757fe5b60019003818190600052602060002090600202016000808201600090556001820160009055505090558660010160008781526020019081526020016000206000905560019450505050506136cc565b60009150505b92915050565b600080823b905060008111915050919050565b60606136f484846000856138f1565b90509392505050565b600073ffffffffffffffffffffffffffffffffffffffff168273ffffffffffffffffffffffffffffffffffffffff1614156137a0576040517f08c379a00000000000000000000000000000000000000000000000000000000081526004018080602001828103825260208152602001807f4552433732313a206d696e7420746f20746865207a65726f206164647265737381525060200191505060405180910390fd5b6137a9816122bd565b1561381c576040517f08c379a000000000000000000000000000000000000000000000000000000000815260040180806020018281038252601c8152602001807f4552433732313a20746f6b656e20616c7265616479206d696e7465640000000081525060200191505060405180910390fd5b61382860008383612e3a565b61387981600260008573ffffffffffffffffffffffffffffffffffffffff1673ffffffffffffffffffffffffffffffffffffffff168152602001908152602001600020612e6490919063ffffffff16565b5061389081836003612e7e9092919063ffffffff16565b50808273ffffffffffffffffffffffffffffffffffffffff16600073ffffffffffffffffffffffffffffffffffffffff167fddf252ad1be2c89b69c2b068fc378daa952ba7f163c4a11628f55a4df523b3ef60405160405180910390a45050565b60608247101561394c576040517f08c379a0000000000000000000000000000000000000000000000000000000008152600401808060200182810382526026815260200180613d006026913960400191505060405180910390fd5b613955856136d2565b6139c7576040517f08c379a000000000000000000000000000000000000000000000000000000000815260040180806020018281038252601d8152602001807f416464726573733a2063616c6c20746f206e6f6e2d636f6e747261637400000081525060200191505060405180910390fd5b6000808673ffffffffffffffffffffffffffffffffffffffff1685876040518082805190602001908083835b60208310613a1657805182526020820191506020810190506020830392506139f3565b6001836020036101000a03801982511681845116808217855250505050505090500191505060006040518083038185875af1925050503d8060008114613a78576040519150601f19603f3d011682016040523d82523d6000602084013e613a7d565b606091505b5091509150613a8d828286613a99565b92505050949350505050565b60608315613aa957829050613b5e565b600083511115613abc5782518084602001fd5b816040517f08c379a00000000000000000000000000000000000000000000000000000000081526004018080602001828103825283818151815260200191508051906020019080838360005b83811015613b23578082015181840152602081019050613b08565b50505050905090810190601f168015613b505780820380516001836020036101000a031916815260200191505b509250505060405180910390fd5b9392505050565b50805460018160011615610100020316600290046000825580601f10613b8b5750613baa565b601f016020900490600052602060002090810190613ba99190613c3b565b5b50565b828054600181600116156101000203166002900490600052602060002090601f016020900481019282613be35760008555613c2a565b82601f10613bfc57805160ff1916838001178555613c2a565b82800160010185558215613c2a579182015b82811115613c29578251825591602001919060010190613c0e565b5b509050613c379190613c3b565b5090565b5b80821115613c54576000816000905550600101613c3c565b509056fe456e756d657261626c655365743a20696e646578206f7574206f6620626f756e6473416363657373436f6e74726f6c3a2073656e646572206d75737420626520616e2061646d696e20746f206772616e744552433732313a207472616e7366657220746f206e6f6e20455243373231526563656976657220696d706c656d656e7465724552433732313a207472616e7366657220746f20746865207a65726f2061646472657373416464726573733a20696e73756666696369656e742062616c616e636520666f722063616c6c4275726e3a2043616c6c6572206973206e6f74206f776e6572206e6f7220617070726f7665644552433732313a206f70657261746f7220717565727920666f72206e6f6e6578697374656e7420746f6b656e68747470733a2f2f7777772e686f67656d696e742e636f6d2f7572692f636f6e74726163742d486f67654e46547633416363657373436f6e74726f6c3a2073656e646572206d75737420626520616e2061646d696e20746f207265766f6b654552433732313a20617070726f76652063616c6c6572206973206e6f74206f776e6572206e6f7220617070726f76656420666f7220616c6c4552433732313a2062616c616e636520717565727920666f7220746865207a65726f20616464726573734552433732313a206f776e657220717565727920666f72206e6f6e6578697374656e7420746f6b656e456e756d657261626c654d61703a20696e646578206f7574206f6620626f756e64734552433732313a20617070726f76656420717565727920666f72206e6f6e6578697374656e7420746f6b656e4552433732314d657461646174613a2055524920736574206f66206e6f6e6578697374656e7420746f6b656e4552433732313a207472616e73666572206f6620746f6b656e2074686174206973206e6f74206f776e4552433732314d657461646174613a2055524920717565727920666f72206e6f6e6578697374656e7420746f6b656e4552433732313a20617070726f76616c20746f2063757272656e74206f776e65724552433732313a207472616e736665722063616c6c6572206973206e6f74206f776e6572206e6f7220617070726f766564416363657373436f6e74726f6c3a2063616e206f6e6c792072656e6f756e636520726f6c657320666f722073656c66a2646970667358221220c9934b71fc610797d2cdb07781f8b745bc463b58cb1b7325cc49abe91d42594964736f6c63430007060033",
  "immutableReferences": {},
  "source": "// SPDX-License-Identifier: MIT\n\npragma solidity >=0.6.0 <0.8.0;\n\nimport \"@openzeppelin/contracts/access/AccessControl.sol\";\nimport \"@openzeppelin/contracts/utils/Context.sol\";\nimport \"@openzeppelin/contracts/utils/Counters.sol\";\nimport \"@openzeppelin/contracts/token/ERC721/ERC721.sol\";\n\ncontract HogeNFTv3 is Context, AccessControl, ERC721 {\n    using Counters for Counters.Counter;\n\n    bytes32 public constant MINTER_ROLE = keccak256(\"MINTER_ROLE\");\n    bytes32 public constant PAUSER_ROLE = keccak256(\"PAUSER_ROLE\");\n\n    Counters.Counter private _tokenIdTracker;\n    address private _owner;\n\n    event Received(address, uint);\n    event Mint(address from, address to, string uri);\n    event OwnershipTransferred(address indexed previousOwner, address indexed newOwner);\n\n    receive() external payable {\n        emit Received(msg.sender, msg.value);\n    }\n\n    constructor(string memory name, string memory symbol, string memory baseURI) public ERC721(name, symbol) {\n        _setupRole(DEFAULT_ADMIN_ROLE, _msgSender());\n\n        _setupRole(MINTER_ROLE, _msgSender());\n        _setupRole(PAUSER_ROLE, _msgSender());\n\n        _owner = msg.sender;\n        emit OwnershipTransferred(address(0), _owner);\n\n        _setBaseURI(baseURI);\n    }\n\n    function mint(address to, string memory uri) public returns (uint) {\n        emit Mint(_msgSender(), to, uri);\n        require(hasRole(MINTER_ROLE, _msgSender()), \"Must have minter role to mint\");\n\n        _safeMint(to, _tokenIdTracker.current());\n        _setTokenURI(_tokenIdTracker.current(), uri);\n        _tokenIdTracker.increment();\n    }\n\n    function burn(uint256 tokenId) public virtual {\n        require(_isApprovedOrOwner(_msgSender(), tokenId), \"Burn: Caller is not owner nor approved\");\n        _burn(tokenId);\n    }\n\n    function _beforeTokenTransfer(address from, address to, uint256 tokenId) internal virtual override(ERC721) {\n        super._beforeTokenTransfer(from, to, tokenId);\n    }\n\n    // Begin Ownable interface from openzeppelin\n    // Primarily used for OpenSea storefront management, AccessControl is used for choosing who can mint.\n    // Owner, MINTER_ROLE, PAUSER_ROLE can all be separate addresses!\n    function owner() public view returns (address) {\n        return _owner;\n    }\n\n    modifier onlyOwner() {\n        require(isOwner());\n        _;\n    }\n\n    function isOwner() public view returns (bool) {\n        return msg.sender == _owner;\n    }\n\n    function renounceOwnership() public onlyOwner {\n        emit OwnershipTransferred(_owner, address(0));\n        _owner = address(0);\n    }\n\n    function transferOwnership(address newOwner) public onlyOwner {\n        _transferOwnership(newOwner);\n    }\n\n    function _transferOwnership(address newOwner) internal {\n        require(newOwner != address(0));\n        emit OwnershipTransferred(_owner, newOwner);\n        _owner = newOwner;\n    }\n\n    function contractURI() public view returns (string memory) {\n        return \"https://www.hogemint.com/uri/contract-HogeNFTv3\";\n    }\n}\n",
  "sourcePath": "/home/jordoq/hoge-nft-v3/contracts/HogeNFTv3.sol",
  "compiler": {
    "name": "solc",
    "version": "0.7.6+commit.7338295f.Emscripten.clang"
  },
  "schemaVersion": "3.3.3",
  "updatedAt": "2021-08-27T00:27:15.452Z",
  "networkType": "ethereum",
  "devdoc": {
    "kind": "dev",
    "methods": {
      "approve(address,uint256)": {
        "details": "See {IERC721-approve}."
      },
      "balanceOf(address)": {
        "details": "See {IERC721-balanceOf}."
      },
      "baseURI()": {
        "details": "Returns the base URI set via {_setBaseURI}. This will be automatically added as a prefix in {tokenURI} to each token's URI, or to the token ID if no specific URI is set for that token ID."
      },
      "getApproved(uint256)": {
        "details": "See {IERC721-getApproved}."
      },
      "getRoleAdmin(bytes32)": {
        "details": "Returns the admin role that controls `role`. See {grantRole} and {revokeRole}. To change a role's admin, use {_setRoleAdmin}."
      },
      "getRoleMember(bytes32,uint256)": {
        "details": "Returns one of the accounts that have `role`. `index` must be a value between 0 and {getRoleMemberCount}, non-inclusive. Role bearers are not sorted in any particular way, and their ordering may change at any point. WARNING: When using {getRoleMember} and {getRoleMemberCount}, make sure you perform all queries on the same block. See the following https://forum.openzeppelin.com/t/iterating-over-elements-on-enumerableset-in-openzeppelin-contracts/2296[forum post] for more information."
      },
      "getRoleMemberCount(bytes32)": {
        "details": "Returns the number of accounts that have `role`. Can be used together with {getRoleMember} to enumerate all bearers of a role."
      },
      "grantRole(bytes32,address)": {
        "details": "Grants `role` to `account`. If `account` had not been already granted `role`, emits a {RoleGranted} event. Requirements: - the caller must have ``role``'s admin role."
      },
      "hasRole(bytes32,address)": {
        "details": "Returns `true` if `account` has been granted `role`."
      },
      "isApprovedForAll(address,address)": {
        "details": "See {IERC721-isApprovedForAll}."
      },
      "name()": {
        "details": "See {IERC721Metadata-name}."
      },
      "ownerOf(uint256)": {
        "details": "See {IERC721-ownerOf}."
      },
      "renounceRole(bytes32,address)": {
        "details": "Revokes `role` from the calling account. Roles are often managed via {grantRole} and {revokeRole}: this function's purpose is to provide a mechanism for accounts to lose their privileges if they are compromised (such as when a trusted device is misplaced). If the calling account had been granted `role`, emits a {RoleRevoked} event. Requirements: - the caller must be `account`."
      },
      "revokeRole(bytes32,address)": {
        "details": "Revokes `role` from `account`. If `account` had been granted `role`, emits a {RoleRevoked} event. Requirements: - the caller must have ``role``'s admin role."
      },
      "safeTransferFrom(address,address,uint256)": {
        "details": "See {IERC721-safeTransferFrom}."
      },
      "safeTransferFrom(address,address,uint256,bytes)": {
        "details": "See {IERC721-safeTransferFrom}."
      },
      "setApprovalForAll(address,bool)": {
        "details": "See {IERC721-setApprovalForAll}."
      },
      "supportsInterface(bytes4)": {
        "details": "See {IERC165-supportsInterface}. Time complexity O(1), guaranteed to always use less than 30 000 gas."
      },
      "symbol()": {
        "details": "See {IERC721Metadata-symbol}."
      },
      "tokenByIndex(uint256)": {
        "details": "See {IERC721Enumerable-tokenByIndex}."
      },
      "tokenOfOwnerByIndex(address,uint256)": {
        "details": "See {IERC721Enumerable-tokenOfOwnerByIndex}."
      },
      "tokenURI(uint256)": {
        "details": "See {IERC721Metadata-tokenURI}."
      },
      "totalSupply()": {
        "details": "See {IERC721Enumerable-totalSupply}."
      },
      "transferFrom(address,address,uint256)": {
        "details": "See {IERC721-transferFrom}."
      }
    },
    "version": 1
  },
  "userdoc": {
    "kind": "user",
    "methods": {},
    "version": 1
  }
}